{
  "contractName": "CovidTrend",
  "abi": [
    {
      "inputs": [
        {
          "internalType": "address",
          "name": "_patientDataContract",
          "type": "address"
        }
      ],
      "stateMutability": "nonpayable",
      "type": "constructor"
    },
    {
      "inputs": [],
      "name": "getAverageDeathRate",
      "outputs": [
        {
          "internalType": "uint256",
          "name": "",
          "type": "uint256"
        }
      ],
      "stateMutability": "view",
      "type": "function"
    },
    {
      "inputs": [],
      "name": "getDistrictWithHighestCases",
      "outputs": [
        {
          "internalType": "string",
          "name": "",
          "type": "string"
        }
      ],
      "stateMutability": "view",
      "type": "function"
    },
    {
      "inputs": [
        {
          "internalType": "string",
          "name": "_district",
          "type": "string"
        }
      ],
      "name": "getMedianAgeInDistrict",
      "outputs": [
        {
          "internalType": "uint256",
          "name": "",
          "type": "uint256"
        }
      ],
      "stateMutability": "view",
      "type": "function"
    },
    {
      "inputs": [
        {
          "internalType": "string",
          "name": "_district",
          "type": "string"
        }
      ],
      "name": "getAgeGroupPercentage",
      "outputs": [
        {
          "internalType": "uint256",
          "name": "",
          "type": "uint256"
        },
        {
          "internalType": "uint256",
          "name": "",
          "type": "uint256"
        },
        {
          "internalType": "uint256",
          "name": "",
          "type": "uint256"
        },
        {
          "internalType": "uint256",
          "name": "",
          "type": "uint256"
        }
      ],
      "stateMutability": "view",
      "type": "function"
    }
  ],
  "bytecode": "0x608060405234801562000010575f80fd5b506040516200172b3803806200172b8339818101604052810190620000369190620000e1565b805f806101000a81548173ffffffffffffffffffffffffffffffffffffffff021916908373ffffffffffffffffffffffffffffffffffffffff1602179055505062000111565b5f80fd5b5f73ffffffffffffffffffffffffffffffffffffffff82169050919050565b5f620000ab8262000080565b9050919050565b620000bd816200009f565b8114620000c8575f80fd5b50565b5f81519050620000db81620000b2565b92915050565b5f60208284031215620000f957620000f86200007c565b5b5f6200010884828501620000cb565b91505092915050565b61160c806200011f5f395ff3fe608060405234801561000f575f80fd5b506004361061004a575f3560e01c80632df3db9a1461004e57806331bfbf451461006c578063871f359d1461008a578063e6ad26bc146100ba575b5f80fd5b6100566100ed565b6040516100639190610ec5565b60405180910390f35b61007461031e565b6040516100819190610f68565b60405180910390f35b6100a4600480360381019061009f91906110c5565b61052b565b6040516100b19190610ec5565b60405180910390f35b6100d460048036038101906100cf91906110c5565b61076b565b6040516100e4949392919061110c565b60405180910390f35b5f805f805f9054906101000a900473ffffffffffffffffffffffffffffffffffffffff1673ffffffffffffffffffffffffffffffffffffffff1663ebc9b2f46040518163ffffffff1660e01b8152600401602060405180830381865afa158015610159573d5f803e3d5ffd5b505050506040513d601f19601f8201168201806040525081019061017d9190611179565b90505f5b818110156102ec575f805f9054906101000a900473ffffffffffffffffffffffffffffffffffffffff1673ffffffffffffffffffffffffffffffffffffffff1663b5368e205f8054906101000a900473ffffffffffffffffffffffffffffffffffffffff1673ffffffffffffffffffffffffffffffffffffffff1663b40f1691856040518263ffffffff1660e01b815260040161021e9190610ec5565b602060405180830381865afa158015610239573d5f803e3d5ffd5b505050506040513d601f19601f8201168201806040525081019061025d91906111fe565b6040518263ffffffff1660e01b81526004016102799190611238565b5f60405180830381865afa158015610293573d5f803e3d5ffd5b505050506040513d5f823e3d601f19601f820116820180604052508101906102bb91906112f4565b965050505050505080156102d85783806102d49061142e565b9450505b5080806102e49061142e565b915050610181565b505f81036102fe575f9250505061031b565b8060648361030c9190611475565b61031691906114e3565b925050505b90565b60605f60605f5b5f8054906101000a900473ffffffffffffffffffffffffffffffffffffffff1673ffffffffffffffffffffffffffffffffffffffff1663ebc9b2f46040518163ffffffff1660e01b8152600401602060405180830381865afa15801561038d573d5f803e3d5ffd5b505050506040513d601f19601f820116820180604052508101906103b19190611179565b811015610522575f805f9054906101000a900473ffffffffffffffffffffffffffffffffffffffff1673ffffffffffffffffffffffffffffffffffffffff1663b5368e205f8054906101000a900473ffffffffffffffffffffffffffffffffffffffff1673ffffffffffffffffffffffffffffffffffffffff1663b40f1691856040518263ffffffff1660e01b815260040161044d9190610ec5565b602060405180830381865afa158015610468573d5f803e3d5ffd5b505050506040513d601f19601f8201168201806040525081019061048c91906111fe565b6040518263ffffffff1660e01b81526004016104a89190611238565b5f60405180830381865afa1580156104c2573d5f803e3d5ffd5b505050506040513d5f823e3d601f19601f820116820180604052508101906104ea91906112f4565b50509450505050505f6104fc82610aa5565b90508481111561050d578094508193505b5050808061051a9061142e565b915050610325565b50809250505090565b5f60605f805b5f8054906101000a900473ffffffffffffffffffffffffffffffffffffffff1673ffffffffffffffffffffffffffffffffffffffff1663ebc9b2f46040518163ffffffff1660e01b8152600401602060405180830381865afa158015610599573d5f803e3d5ffd5b505050506040513d601f19601f820116820180604052508101906105bd9190611179565b811015610758575f805f8054906101000a900473ffffffffffffffffffffffffffffffffffffffff1673ffffffffffffffffffffffffffffffffffffffff1663b5368e205f8054906101000a900473ffffffffffffffffffffffffffffffffffffffff1673ffffffffffffffffffffffffffffffffffffffff1663b40f1691866040518263ffffffff1660e01b81526004016106599190610ec5565b602060405180830381865afa158015610674573d5f803e3d5ffd5b505050506040513d601f19601f8201168201806040525081019061069891906111fe565b6040518263ffffffff1660e01b81526004016106b49190611238565b5f60405180830381865afa1580156106ce573d5f803e3d5ffd5b505050506040513d5f823e3d601f19601f820116820180604052508101906106f691906112f4565b5050945050509250508680519060200120818051906020012003610743578185858151811061072857610727611513565b5b602002602001018181525050838061073f9061142e565b9450505b505080806107509061142e565b915050610531565b5061076282610cb8565b92505050919050565b5f805f805f805f805f5b5f8054906101000a900473ffffffffffffffffffffffffffffffffffffffff1673ffffffffffffffffffffffffffffffffffffffff1663ebc9b2f46040518163ffffffff1660e01b8152600401602060405180830381865afa1580156107dd573d5f803e3d5ffd5b505050506040513d601f19601f820116820180604052508101906108019190611179565b8110156109ed575f805f8054906101000a900473ffffffffffffffffffffffffffffffffffffffff1673ffffffffffffffffffffffffffffffffffffffff1663b5368e205f8054906101000a900473ffffffffffffffffffffffffffffffffffffffff1673ffffffffffffffffffffffffffffffffffffffff1663b40f1691866040518263ffffffff1660e01b815260040161089d9190610ec5565b602060405180830381865afa1580156108b8573d5f803e3d5ffd5b505050506040513d601f19601f820116820180604052508101906108dc91906111fe565b6040518263ffffffff1660e01b81526004016108f89190611238565b5f60405180830381865afa158015610912573d5f803e3d5ffd5b505050506040513d5f823e3d601f19601f8201168201806040525081019061093a91906112f4565b5050945050509250508b805190602001208180519060200120036109d857600d82101561097457868061096c9061142e565b9750506109d7565b600d82101580156109855750601482105b1561099d5785806109959061142e565b9650506109d6565b601482101580156109ae5750603282105b156109c65784806109be9061142e565b9550506109d5565b83806109d19061142e565b9450505b5b5b5b505080806109e59061142e565b915050610775565b505f818385876109fd9190611540565b610a079190611540565b610a119190611540565b90505f8103610a30575f805f8098509850985098505050505050610a9e565b80606486610a3e9190611475565b610a4891906114e3565b81606486610a569190611475565b610a6091906114e3565b82606486610a6e9190611475565b610a7891906114e3565b83606486610a869190611475565b610a9091906114e3565b985098509850985050505050505b9193509193565b5f805f5b5f8054906101000a900473ffffffffffffffffffffffffffffffffffffffff1673ffffffffffffffffffffffffffffffffffffffff1663ebc9b2f46040518163ffffffff1660e01b8152600401602060405180830381865afa158015610b11573d5f803e3d5ffd5b505050506040513d601f19601f82011682018060405250810190610b359190611179565b811015610cae575f805f9054906101000a900473ffffffffffffffffffffffffffffffffffffffff1673ffffffffffffffffffffffffffffffffffffffff1663b5368e205f8054906101000a900473ffffffffffffffffffffffffffffffffffffffff1673ffffffffffffffffffffffffffffffffffffffff1663b40f1691856040518263ffffffff1660e01b8152600401610bd19190610ec5565b602060405180830381865afa158015610bec573d5f803e3d5ffd5b505050506040513d601f19601f82011682018060405250810190610c1091906111fe565b6040518263ffffffff1660e01b8152600401610c2c9190611238565b5f60405180830381865afa158015610c46573d5f803e3d5ffd5b505050506040513d5f823e3d601f19601f82011682018060405250810190610c6e91906112f4565b50509450505050508480519060200120818051906020012003610c9a578280610c969061142e565b9350505b508080610ca69061142e565b915050610aa9565b5080915050919050565b5f80825190505f8103610cce575f915050610d92565b5f610cd884610d97565b90505f600283610ce89190611573565b03610d66576002816001600285610cff91906114e3565b610d0991906115a3565b81518110610d1a57610d19611513565b5b602002602001015182600285610d3091906114e3565b81518110610d4157610d40611513565b5b6020026020010151610d539190611540565b610d5d91906114e3565b92505050610d92565b80600283610d7491906114e3565b81518110610d8557610d84611513565b5b6020026020010151925050505b919050565b60605f8290505f815190505f5b81811015610ea2575f600182610dba9190611540565b90505b82811015610e8e57838181518110610dd857610dd7611513565b5b6020026020010151848381518110610df357610df2611513565b5b60200260200101511115610e7b575f848381518110610e1557610e14611513565b5b60200260200101519050848281518110610e3257610e31611513565b5b6020026020010151858481518110610e4d57610e4c611513565b5b60200260200101818152505080858381518110610e6d57610e6c611513565b5b602002602001018181525050505b8080610e869061142e565b915050610dbd565b508080610e9a9061142e565b915050610da4565b508192505050919050565b5f819050919050565b610ebf81610ead565b82525050565b5f602082019050610ed85f830184610eb6565b92915050565b5f81519050919050565b5f82825260208201905092915050565b5f5b83811015610f15578082015181840152602081019050610efa565b5f8484015250505050565b5f601f19601f8301169050919050565b5f610f3a82610ede565b610f448185610ee8565b9350610f54818560208601610ef8565b610f5d81610f20565b840191505092915050565b5f6020820190508181035f830152610f808184610f30565b905092915050565b5f604051905090565b5f80fd5b5f80fd5b5f80fd5b5f80fd5b7f4e487b71000000000000000000000000000000000000000000000000000000005f52604160045260245ffd5b610fd782610f20565b810181811067ffffffffffffffff82111715610ff657610ff5610fa1565b5b80604052505050565b5f611008610f88565b90506110148282610fce565b919050565b5f67ffffffffffffffff82111561103357611032610fa1565b5b61103c82610f20565b9050602081019050919050565b828183375f83830152505050565b5f61106961106484611019565b610fff565b90508281526020810184848401111561108557611084610f9d565b5b611090848285611049565b509392505050565b5f82601f8301126110ac576110ab610f99565b5b81356110bc848260208601611057565b91505092915050565b5f602082840312156110da576110d9610f91565b5b5f82013567ffffffffffffffff8111156110f7576110f6610f95565b5b61110384828501611098565b91505092915050565b5f60808201905061111f5f830187610eb6565b61112c6020830186610eb6565b6111396040830185610eb6565b6111466060830184610eb6565b95945050505050565b61115881610ead565b8114611162575f80fd5b50565b5f815190506111738161114f565b92915050565b5f6020828403121561118e5761118d610f91565b5b5f61119b84828501611165565b91505092915050565b5f73ffffffffffffffffffffffffffffffffffffffff82169050919050565b5f6111cd826111a4565b9050919050565b6111dd816111c3565b81146111e7575f80fd5b50565b5f815190506111f8816111d4565b92915050565b5f6020828403121561121357611212610f91565b5b5f611220848285016111ea565b91505092915050565b611232816111c3565b82525050565b5f60208201905061124b5f830184611229565b92915050565b5f61126361125e84611019565b610fff565b90508281526020810184848401111561127f5761127e610f9d565b5b61128a848285610ef8565b509392505050565b5f82601f8301126112a6576112a5610f99565b5b81516112b6848260208601611251565b91505092915050565b5f8115159050919050565b6112d3816112bf565b81146112dd575f80fd5b50565b5f815190506112ee816112ca565b92915050565b5f805f805f805f60e0888a03121561130f5761130e610f91565b5b5f61131c8a828b01611165565b975050602061132d8a828b01611165565b965050604088015167ffffffffffffffff81111561134e5761134d610f95565b5b61135a8a828b01611292565b955050606088015167ffffffffffffffff81111561137b5761137a610f95565b5b6113878a828b01611292565b945050608088015167ffffffffffffffff8111156113a8576113a7610f95565b5b6113b48a828b01611292565b93505060a088015167ffffffffffffffff8111156113d5576113d4610f95565b5b6113e18a828b01611292565b92505060c06113f28a828b016112e0565b91505092959891949750929550565b7f4e487b71000000000000000000000000000000000000000000000000000000005f52601160045260245ffd5b5f61143882610ead565b91507fffffffffffffffffffffffffffffffffffffffffffffffffffffffffffffffff820361146a57611469611401565b5b600182019050919050565b5f61147f82610ead565b915061148a83610ead565b925082820261149881610ead565b915082820484148315176114af576114ae611401565b5b5092915050565b7f4e487b71000000000000000000000000000000000000000000000000000000005f52601260045260245ffd5b5f6114ed82610ead565b91506114f883610ead565b925082611508576115076114b6565b5b828204905092915050565b7f4e487b71000000000000000000000000000000000000000000000000000000005f52603260045260245ffd5b5f61154a82610ead565b915061155583610ead565b925082820190508082111561156d5761156c611401565b5b92915050565b5f61157d82610ead565b915061158883610ead565b925082611598576115976114b6565b5b828206905092915050565b5f6115ad82610ead565b91506115b883610ead565b92508282039050818111156115d0576115cf611401565b5b9291505056fea264697066735822122055c3d86d6958b9197de6c327c19f617ade077885bb1aac39fa269d354b99c10764736f6c63430008150033",
  "immutableReferences": {},
  "source": "// SPDX-License-Identifier: GPL-3.0\r\n\r\npragma solidity >=0.8.2 <0.9.0;\r\n\r\nimport \"./PatientData.sol\";\r\n\r\ncontract CovidTrend {\r\n    PatientData patientData;\r\n\r\n    constructor(address _patientDataContract) {\r\n        patientData = PatientData(_patientDataContract);\r\n    }\r\n\r\n    function getAverageDeathRate() public view returns (uint) {\r\n        uint totalDeaths;\r\n        uint totalPatients = patientData.getPatientsCount(); // Use the getPatientsCount function to get the total number of patients\r\n        \r\n        for (uint i = 0; i < totalPatients; i++) {\r\n            (, , , , , , bool isDead) = patientData.getPatient(patientData.patientAddresses(i));\r\n            if (isDead) {\r\n                totalDeaths++;\r\n            }\r\n        }\r\n        \r\n        if (totalPatients == 0) {\r\n            return 0; // Return 0 if there are no patients to avoid division by zero\r\n        } else {\r\n            return (totalDeaths * 100) / totalPatients; // Calculate death rate as a percentage\r\n        }\r\n    }\r\n\r\n    function getDistrictWithHighestCases() public view returns (string memory) {\r\n        uint maxCases = 0;\r\n        string memory districtWithHighestCases;\r\n        \r\n        for (uint i = 0; i < patientData.getPatientsCount(); i++) {\r\n            (, , , , string memory district, , ) =patientData.getPatient(patientData.patientAddresses(i));\r\n            uint casesInDistrict = getCasesInDistrict(district);\r\n            \r\n            if (casesInDistrict > maxCases) {\r\n                maxCases = casesInDistrict;\r\n                districtWithHighestCases = district;\r\n            }\r\n        }\r\n        \r\n        return districtWithHighestCases;\r\n    }\r\n\r\n    function getMedianAgeInDistrict(string memory _district) public view returns (uint) {\r\n        uint[] memory ages;\r\n        uint count = 0;\r\n        \r\n        for (uint i = 0; i < patientData.getPatientsCount(); i++) {\r\n            (, uint age, , , string memory district, , ) = patientData.getPatient(patientData.patientAddresses(i));\r\n            \r\n            if (keccak256(bytes(district)) == keccak256(bytes(_district))) {\r\n            ages[count] = age; // Store age in memory array\r\n            count++;\r\n        }\r\n        }\r\n        \r\n        return calculateMedian(ages);\r\n    }\r\n    \r\n    function getAgeGroupPercentage(string memory _district) public view returns (uint, uint, uint, uint) {\r\n        uint children;\r\n        uint teenagers;\r\n        uint young;\r\n        uint elder;\r\n        \r\n        for (uint i = 0; i < patientData.getPatientsCount(); i++) {\r\n            (, uint age, , , string memory district, , ) = patientData.getPatient(patientData.patientAddresses(i));\r\n            \r\n            if (keccak256(bytes(district)) == keccak256(bytes(_district))) {\r\n                if (age < 13) {\r\n                    children++;\r\n                } else if (age >= 13 && age < 20) {\r\n                    teenagers++;\r\n                } else if (age >= 20 && age < 50) {\r\n                    young++;\r\n                } else {\r\n                    elder++;\r\n                }\r\n            }\r\n        }\r\n        \r\n        uint totalPatients = children + teenagers + young + elder;\r\n        \r\n        if (totalPatients == 0) {\r\n            return (0, 0, 0, 0);\r\n        } else {\r\n            return (\r\n                (children * 100) / totalPatients,\r\n                (teenagers * 100) / totalPatients,\r\n                (young * 100) / totalPatients,\r\n                (elder * 100) / totalPatients\r\n            );\r\n        }\r\n    }\r\n    \r\n    function getCasesInDistrict(string memory _district) private view returns (uint) {\r\n        uint cases;\r\n        \r\n        for (uint i = 0; i < patientData.getPatientsCount(); i++) {\r\n            (, , , , string memory district, , ) = patientData.getPatient(patientData.patientAddresses(i));\r\n            \r\n            if (keccak256(bytes(district)) == keccak256(bytes(_district))) {\r\n                cases++;\r\n            }\r\n        }\r\n        \r\n        return cases;\r\n    }\r\n    \r\n    function calculateMedian(uint[] memory _ages) private pure returns (uint) {\r\n        uint n = _ages.length;\r\n        \r\n        if (n == 0) {\r\n            return 0;\r\n        }\r\n        \r\n        uint[] memory sortedAges = _sort(_ages);\r\n        \r\n        if (n % 2 == 0) {\r\n            return (sortedAges[n / 2] + sortedAges[(n / 2) - 1]) / 2;\r\n        } else {\r\n            return sortedAges[n / 2];\r\n        }\r\n    }\r\n    \r\n    function _sort(uint[] memory _arr) private pure returns (uint[] memory) {\r\n        uint[] memory arr = _arr;\r\n        uint n = arr.length;\r\n        \r\n        for (uint i = 0; i < n; i++) {\r\n            for (uint j = i + 1; j < n; j++) {\r\n                if (arr[i] > arr[j]) {\r\n                    uint temp = arr[i];\r\n                    arr[i] = arr[j];\r\n                    arr[j] = temp;\r\n                }\r\n            }\r\n        }\r\n        \r\n        return arr;\r\n    }\r\n}\r\n",
  "sourcePath": "E:\\446 Project\\contracts\\CovidTrend.sol",
  "compiler": {
    "name": "solc",
    "version": "0.8.21+commit.d9974bed.Emscripten.clang"
  },
  "schemaVersion": "3.4.16",
  "updatedAt": "2024-03-31T16:53:24.228Z",
  "devdoc": {
    "kind": "dev",
    "methods": {},
    "version": 1
  },
  "userdoc": {
    "kind": "user",
    "methods": {},
    "version": 1
  }
}