{
  "contractName": "PatientData",
  "abi": [
    {
      "anonymous": false,
      "inputs": [
        {
          "indexed": false,
          "internalType": "address",
          "name": "patientAddress",
          "type": "address"
        },
        {
          "indexed": false,
          "internalType": "bool",
          "name": "isDead",
          "type": "bool"
        }
      ],
      "name": "DeathStatusUpdated",
      "type": "event"
    },
    {
      "anonymous": false,
      "inputs": [
        {
          "indexed": false,
          "internalType": "address",
          "name": "patientAddress",
          "type": "address"
        }
      ],
      "name": "PatientAdded",
      "type": "event"
    },
    {
      "anonymous": false,
      "inputs": [
        {
          "indexed": false,
          "internalType": "address",
          "name": "patientAddress",
          "type": "address"
        },
        {
          "indexed": false,
          "internalType": "string",
          "name": "newStatus",
          "type": "string"
        }
      ],
      "name": "VaccineStatusUpdated",
      "type": "event"
    },
    {
      "inputs": [
        {
          "internalType": "uint256",
          "name": "",
          "type": "uint256"
        }
      ],
      "name": "patientAddresses",
      "outputs": [
        {
          "internalType": "address",
          "name": "",
          "type": "address"
        }
      ],
      "stateMutability": "view",
      "type": "function"
    },
    {
      "inputs": [
        {
          "internalType": "address",
          "name": "",
          "type": "address"
        }
      ],
      "name": "patients",
      "outputs": [
        {
          "internalType": "uint256",
          "name": "id",
          "type": "uint256"
        },
        {
          "internalType": "uint256",
          "name": "age",
          "type": "uint256"
        },
        {
          "internalType": "string",
          "name": "gender",
          "type": "string"
        },
        {
          "internalType": "string",
          "name": "vaccineStatus",
          "type": "string"
        },
        {
          "internalType": "string",
          "name": "district",
          "type": "string"
        },
        {
          "internalType": "string",
          "name": "symptomsDetails",
          "type": "string"
        },
        {
          "internalType": "bool",
          "name": "isDead",
          "type": "bool"
        }
      ],
      "stateMutability": "view",
      "type": "function"
    },
    {
      "inputs": [
        {
          "internalType": "address",
          "name": "_patientAddress",
          "type": "address"
        },
        {
          "internalType": "uint256",
          "name": "_id",
          "type": "uint256"
        },
        {
          "internalType": "uint256",
          "name": "_age",
          "type": "uint256"
        },
        {
          "internalType": "string",
          "name": "_gender",
          "type": "string"
        },
        {
          "internalType": "string",
          "name": "_vaccineStatus",
          "type": "string"
        },
        {
          "internalType": "string",
          "name": "_district",
          "type": "string"
        },
        {
          "internalType": "string",
          "name": "_symptomsDetails",
          "type": "string"
        }
      ],
      "name": "addPatient",
      "outputs": [],
      "stateMutability": "nonpayable",
      "type": "function"
    },
    {
      "inputs": [
        {
          "internalType": "address",
          "name": "_patientAddress",
          "type": "address"
        },
        {
          "internalType": "string",
          "name": "_newStatus",
          "type": "string"
        }
      ],
      "name": "updateVaccineStatus",
      "outputs": [],
      "stateMutability": "nonpayable",
      "type": "function"
    },
    {
      "inputs": [
        {
          "internalType": "address",
          "name": "_patientAddress",
          "type": "address"
        },
        {
          "internalType": "bool",
          "name": "_isDead",
          "type": "bool"
        }
      ],
      "name": "updateDeathStatus",
      "outputs": [],
      "stateMutability": "nonpayable",
      "type": "function"
    },
    {
      "inputs": [
        {
          "internalType": "address",
          "name": "_patientAddress",
          "type": "address"
        }
      ],
      "name": "getPatient",
      "outputs": [
        {
          "internalType": "uint256",
          "name": "",
          "type": "uint256"
        },
        {
          "internalType": "uint256",
          "name": "",
          "type": "uint256"
        },
        {
          "internalType": "string",
          "name": "",
          "type": "string"
        },
        {
          "internalType": "string",
          "name": "",
          "type": "string"
        },
        {
          "internalType": "string",
          "name": "",
          "type": "string"
        },
        {
          "internalType": "string",
          "name": "",
          "type": "string"
        },
        {
          "internalType": "bool",
          "name": "",
          "type": "bool"
        }
      ],
      "stateMutability": "view",
      "type": "function"
    },
    {
      "inputs": [],
      "name": "getPatientsCount",
      "outputs": [
        {
          "internalType": "uint256",
          "name": "",
          "type": "uint256"
        }
      ],
      "stateMutability": "view",
      "type": "function"
    }
  ],
  "bytecode": "0x608060405234801561000f575f80fd5b506116488061001d5f395ff3fe608060405234801561000f575f80fd5b506004361061007b575f3560e01c8063ae03d8ee11610059578063ae03d8ee146100ed578063b40f169114610109578063b5368e2014610139578063ebc9b2f41461016f5761007b565b80630869cfbc1461007f578063844a5e4d146100b55780639d4bf882146100d1575b5f80fd5b61009960048036038101906100949190610cbb565b61018d565b6040516100ac9796959493929190610da2565b60405180910390f35b6100cf60048036038101906100ca9190610e55565b6103ee565b005b6100eb60048036038101906100e69190610fbf565b61050e565b005b61010760048036038101906101029190611043565b6106f0565b005b610123600480360381019061011e9190611150565b61090d565b604051610130919061118a565b60405180910390f35b610153600480360381019061014e9190610cbb565b610948565b6040516101669796959493929190610da2565b60405180910390f35b610177610c44565b60405161018491906111a3565b60405180910390f35b5f602052805f5260405f205f91509050805f0154908060010154908060020180546101b7906111e9565b80601f01602080910402602001604051908101604052809291908181526020018280546101e3906111e9565b801561022e5780601f106102055761010080835404028352916020019161022e565b820191905f5260205f20905b81548152906001019060200180831161021157829003601f168201915b505050505090806003018054610243906111e9565b80601f016020809104026020016040519081016040528092919081815260200182805461026f906111e9565b80156102ba5780601f10610291576101008083540402835291602001916102ba565b820191905f5260205f20905b81548152906001019060200180831161029d57829003601f168201915b5050505050908060040180546102cf906111e9565b80601f01602080910402602001604051908101604052809291908181526020018280546102fb906111e9565b80156103465780601f1061031d57610100808354040283529160200191610346565b820191905f5260205f20905b81548152906001019060200180831161032957829003601f168201915b50505050509080600501805461035b906111e9565b80601f0160208091040260200160405190810160405280929190818152602001828054610387906111e9565b80156103d25780601f106103a9576101008083540402835291602001916103d2565b820191905f5260205f20905b8154815290600101906020018083116103b557829003601f168201915b505050505090806006015f9054906101000a900460ff16905087565b5f805f8473ffffffffffffffffffffffffffffffffffffffff1673ffffffffffffffffffffffffffffffffffffffff1681526020019081526020015f206003018054610439906111e9565b90500361047b576040517f08c379a000000000000000000000000000000000000000000000000000000000815260040161047290611263565b60405180910390fd5b805f808473ffffffffffffffffffffffffffffffffffffffff1673ffffffffffffffffffffffffffffffffffffffff1681526020019081526020015f206006015f6101000a81548160ff0219169083151502179055507f9c62ec28f4f34a590f1a3183ee168b4f1ebb8d66ee3eb7d2a1cf8b70a4d93dd28282604051610502929190611281565b60405180910390a15050565b5f805f8473ffffffffffffffffffffffffffffffffffffffff1673ffffffffffffffffffffffffffffffffffffffff1681526020019081526020015f206003018054610559906111e9565b90500361059b576040517f08c379a000000000000000000000000000000000000000000000000000000000815260040161059290611263565b60405180910390fd5b7ff3619270b6d3c7b31847c95d461d0ef62f7f6bfaa81b080734655408ffa0920a818051906020012014806105f657507feef46f33f7380b55118563ce4c45b41501211474a6e30ac3e47356a1c4eacc0b8180519060200120145b8061062757507f5b19d7a0445192e2be70632d40c9730f1edd5bf0f5660f5f7a9f4ede7de4422d8180519060200120145b610666576040517f08c379a000000000000000000000000000000000000000000000000000000000815260040161065d906112f2565b60405180910390fd5b805f808473ffffffffffffffffffffffffffffffffffffffff1673ffffffffffffffffffffffffffffffffffffffff1681526020019081526020015f2060030190816106b291906114ad565b507fa8e5166d3a5665eac6cce3e9c402df23979cbde77f4470865f25c428cf1cdfc582826040516106e492919061157c565b60405180910390a15050565b5f805f8973ffffffffffffffffffffffffffffffffffffffff1673ffffffffffffffffffffffffffffffffffffffff1681526020019081526020015f205f015414610770576040517f08c379a0000000000000000000000000000000000000000000000000000000008152600401610767906115f4565b60405180910390fd5b6040518060e001604052808781526020018681526020018581526020018481526020018381526020018281526020015f15158152505f808973ffffffffffffffffffffffffffffffffffffffff1673ffffffffffffffffffffffffffffffffffffffff1681526020019081526020015f205f820151815f015560208201518160010155604082015181600201908161080891906114ad565b50606082015181600301908161081e91906114ad565b50608082015181600401908161083491906114ad565b5060a082015181600501908161084a91906114ad565b5060c0820151816006015f6101000a81548160ff021916908315150217905550905050600187908060018154018082558091505060019003905f5260205f20015f9091909190916101000a81548173ffffffffffffffffffffffffffffffffffffffff021916908373ffffffffffffffffffffffffffffffffffffffff1602179055507fa58cff07db0adda3ab7a40bd2f18ab57210bf38391a52ffd2e8eee6b8bdec71a876040516108fc919061118a565b60405180910390a150505050505050565b6001818154811061091c575f80fd5b905f5260205f20015f915054906101000a900473ffffffffffffffffffffffffffffffffffffffff1681565b5f806060806060805f805f808a73ffffffffffffffffffffffffffffffffffffffff1673ffffffffffffffffffffffffffffffffffffffff1681526020019081526020015f206040518060e00160405290815f8201548152602001600182015481526020016002820180546109bc906111e9565b80601f01602080910402602001604051908101604052809291908181526020018280546109e8906111e9565b8015610a335780601f10610a0a57610100808354040283529160200191610a33565b820191905f5260205f20905b815481529060010190602001808311610a1657829003601f168201915b50505050508152602001600382018054610a4c906111e9565b80601f0160208091040260200160405190810160405280929190818152602001828054610a78906111e9565b8015610ac35780601f10610a9a57610100808354040283529160200191610ac3565b820191905f5260205f20905b815481529060010190602001808311610aa657829003601f168201915b50505050508152602001600482018054610adc906111e9565b80601f0160208091040260200160405190810160405280929190818152602001828054610b08906111e9565b8015610b535780601f10610b2a57610100808354040283529160200191610b53565b820191905f5260205f20905b815481529060010190602001808311610b3657829003601f168201915b50505050508152602001600582018054610b6c906111e9565b80601f0160208091040260200160405190810160405280929190818152602001828054610b98906111e9565b8015610be35780601f10610bba57610100808354040283529160200191610be3565b820191905f5260205f20905b815481529060010190602001808311610bc657829003601f168201915b50505050508152602001600682015f9054906101000a900460ff1615151515815250509050805f015181602001518260400151836060015184608001518560a001518660c00151975097509750975097509750975050919395979092949650565b5f600180549050905090565b5f604051905090565b5f80fd5b5f80fd5b5f73ffffffffffffffffffffffffffffffffffffffff82169050919050565b5f610c8a82610c61565b9050919050565b610c9a81610c80565b8114610ca4575f80fd5b50565b5f81359050610cb581610c91565b92915050565b5f60208284031215610cd057610ccf610c59565b5b5f610cdd84828501610ca7565b91505092915050565b5f819050919050565b610cf881610ce6565b82525050565b5f81519050919050565b5f82825260208201905092915050565b5f5b83811015610d35578082015181840152602081019050610d1a565b5f8484015250505050565b5f601f19601f8301169050919050565b5f610d5a82610cfe565b610d648185610d08565b9350610d74818560208601610d18565b610d7d81610d40565b840191505092915050565b5f8115159050919050565b610d9c81610d88565b82525050565b5f60e082019050610db55f83018a610cef565b610dc26020830189610cef565b8181036040830152610dd48188610d50565b90508181036060830152610de88187610d50565b90508181036080830152610dfc8186610d50565b905081810360a0830152610e108185610d50565b9050610e1f60c0830184610d93565b98975050505050505050565b610e3481610d88565b8114610e3e575f80fd5b50565b5f81359050610e4f81610e2b565b92915050565b5f8060408385031215610e6b57610e6a610c59565b5b5f610e7885828601610ca7565b9250506020610e8985828601610e41565b9150509250929050565b5f80fd5b5f80fd5b7f4e487b71000000000000000000000000000000000000000000000000000000005f52604160045260245ffd5b610ed182610d40565b810181811067ffffffffffffffff82111715610ef057610eef610e9b565b5b80604052505050565b5f610f02610c50565b9050610f0e8282610ec8565b919050565b5f67ffffffffffffffff821115610f2d57610f2c610e9b565b5b610f3682610d40565b9050602081019050919050565b828183375f83830152505050565b5f610f63610f5e84610f13565b610ef9565b905082815260208101848484011115610f7f57610f7e610e97565b5b610f8a848285610f43565b509392505050565b5f82601f830112610fa657610fa5610e93565b5b8135610fb6848260208601610f51565b91505092915050565b5f8060408385031215610fd557610fd4610c59565b5b5f610fe285828601610ca7565b925050602083013567ffffffffffffffff81111561100357611002610c5d565b5b61100f85828601610f92565b9150509250929050565b61102281610ce6565b811461102c575f80fd5b50565b5f8135905061103d81611019565b92915050565b5f805f805f805f60e0888a03121561105e5761105d610c59565b5b5f61106b8a828b01610ca7565b975050602061107c8a828b0161102f565b965050604061108d8a828b0161102f565b955050606088013567ffffffffffffffff8111156110ae576110ad610c5d565b5b6110ba8a828b01610f92565b945050608088013567ffffffffffffffff8111156110db576110da610c5d565b5b6110e78a828b01610f92565b93505060a088013567ffffffffffffffff81111561110857611107610c5d565b5b6111148a828b01610f92565b92505060c088013567ffffffffffffffff81111561113557611134610c5d565b5b6111418a828b01610f92565b91505092959891949750929550565b5f6020828403121561116557611164610c59565b5b5f6111728482850161102f565b91505092915050565b61118481610c80565b82525050565b5f60208201905061119d5f83018461117b565b92915050565b5f6020820190506111b65f830184610cef565b92915050565b7f4e487b71000000000000000000000000000000000000000000000000000000005f52602260045260245ffd5b5f600282049050600182168061120057607f821691505b602082108103611213576112126111bc565b5b50919050565b7f50617469656e7420646f6573206e6f74206578697374000000000000000000005f82015250565b5f61124d601683610d08565b915061125882611219565b602082019050919050565b5f6020820190508181035f83015261127a81611241565b9050919050565b5f6040820190506112945f83018561117b565b6112a16020830184610d93565b9392505050565b7f496e76616c69642076616363696e6520737461747573000000000000000000005f82015250565b5f6112dc601683610d08565b91506112e7826112a8565b602082019050919050565b5f6020820190508181035f830152611309816112d0565b9050919050565b5f819050815f5260205f209050919050565b5f6020601f8301049050919050565b5f82821b905092915050565b5f6008830261136c7fffffffffffffffffffffffffffffffffffffffffffffffffffffffffffffffff82611331565b6113768683611331565b95508019841693508086168417925050509392505050565b5f819050919050565b5f6113b16113ac6113a784610ce6565b61138e565b610ce6565b9050919050565b5f819050919050565b6113ca83611397565b6113de6113d6826113b8565b84845461133d565b825550505050565b5f90565b6113f26113e6565b6113fd8184846113c1565b505050565b5b81811015611420576114155f826113ea565b600181019050611403565b5050565b601f8211156114655761143681611310565b61143f84611322565b8101602085101561144e578190505b61146261145a85611322565b830182611402565b50505b505050565b5f82821c905092915050565b5f6114855f198460080261146a565b1980831691505092915050565b5f61149d8383611476565b9150826002028217905092915050565b6114b682610cfe565b67ffffffffffffffff8111156114cf576114ce610e9b565b5b6114d982546111e9565b6114e4828285611424565b5f60209050601f831160018114611515575f8415611503578287015190505b61150d8582611492565b865550611574565b601f19841661152386611310565b5f5b8281101561154a57848901518255600182019150602085019450602081019050611525565b868310156115675784890151611563601f891682611476565b8355505b6001600288020188555050505b505050505050565b5f60408201905061158f5f83018561117b565b81810360208301526115a18184610d50565b90509392505050565b7f50617469656e7420616c726561647920657869737473000000000000000000005f82015250565b5f6115de601683610d08565b91506115e9826115aa565b602082019050919050565b5f6020820190508181035f83015261160b816115d2565b905091905056fea2646970667358221220353691a4c46d5137bb092f33977408055a8eab18da348e603881d6cab17d36c064736f6c63430008150033",
  "immutableReferences": {},
  "source": "// SPDX-License-Identifier: GPL-3.0\r\n\r\npragma solidity >=0.8.2 <0.9.0;\r\n\r\n\r\ncontract PatientData {\r\n    struct Patient {\r\n        uint id;\r\n        uint age;\r\n        string gender;\r\n        string vaccineStatus;\r\n        string district;\r\n        string symptomsDetails;\r\n        bool isDead;\r\n    }\r\n\r\n    mapping(address => Patient) public patients;\r\n    address[] public patientAddresses; // Array to store patient addresses\r\n\r\n    event PatientAdded(address patientAddress);\r\n    event VaccineStatusUpdated(address patientAddress, string newStatus);\r\n    event DeathStatusUpdated(address patientAddress, bool isDead);\r\n\r\n    function addPatient(address _patientAddress, uint _id, uint _age, string memory _gender, string memory _vaccineStatus, string memory _district, string memory _symptomsDetails) public {\r\n        require(patients[_patientAddress].id == 0, \"Patient already exists\");\r\n\r\n        patients[_patientAddress] = Patient(_id, _age, _gender, _vaccineStatus, _district, _symptomsDetails, false);\r\n        patientAddresses.push(_patientAddress); // Add patient address to the array\r\n        \r\n        emit PatientAdded(_patientAddress);\r\n    }\r\n\r\n    function updateVaccineStatus(address _patientAddress, string memory _newStatus) public {\r\n        require(bytes(patients[_patientAddress].vaccineStatus).length != 0, \"Patient does not exist\");\r\n        require(keccak256(bytes(_newStatus)) == keccak256(\"not_vaccinated\") || keccak256(bytes(_newStatus)) == keccak256(\"one_dose\") || keccak256(bytes(_newStatus)) == keccak256(\"two_dose\"), \"Invalid vaccine status\");\r\n\r\n        patients[_patientAddress].vaccineStatus = _newStatus;\r\n        emit VaccineStatusUpdated(_patientAddress, _newStatus);\r\n    }\r\n\r\n    function updateDeathStatus(address _patientAddress, bool _isDead) public {\r\n        require(bytes(patients[_patientAddress].vaccineStatus).length != 0, \"Patient does not exist\");\r\n\r\n        patients[_patientAddress].isDead = _isDead;\r\n        emit DeathStatusUpdated(_patientAddress, _isDead);\r\n    }\r\n\r\n    function getPatient(address _patientAddress) public view returns (uint, uint, string memory, string memory, string memory, string memory, bool) {\r\n        Patient memory patient = patients[_patientAddress];\r\n        return (patient.id, patient.age, patient.gender, patient.vaccineStatus, patient.district, patient.symptomsDetails, patient.isDead);\r\n    }\r\n\r\n    function getPatientsCount() public view returns (uint) {\r\n        return patientAddresses.length;\r\n    }\r\n}\r\n",
  "sourcePath": "E:\\446 Project\\contracts\\PatientData.sol",
  "compiler": {
    "name": "solc",
    "version": "0.8.21+commit.d9974bed.Emscripten.clang"
  },
  "schemaVersion": "3.4.16",
  "updatedAt": "2024-03-31T16:53:24.237Z",
  "devdoc": {
    "kind": "dev",
    "methods": {},
    "version": 1
  },
  "userdoc": {
    "kind": "user",
    "methods": {},
    "version": 1
  }
}