{
  "contractName": "PatientManagement",
  "abi": [
    {
      "anonymous": false,
      "inputs": [
        {
          "indexed": true,
          "internalType": "uint256",
          "name": "id",
          "type": "uint256"
        },
        {
          "indexed": false,
          "internalType": "string",
          "name": "name",
          "type": "string"
        },
        {
          "indexed": false,
          "internalType": "uint256",
          "name": "age",
          "type": "uint256"
        },
        {
          "indexed": false,
          "internalType": "string",
          "name": "gender",
          "type": "string"
        },
        {
          "indexed": false,
          "internalType": "string",
          "name": "vaccine_status",
          "type": "string"
        },
        {
          "indexed": false,
          "internalType": "string",
          "name": "district",
          "type": "string"
        },
        {
          "indexed": false,
          "internalType": "string",
          "name": "symptoms_details",
          "type": "string"
        },
        {
          "indexed": false,
          "internalType": "bool",
          "name": "is_dead",
          "type": "bool"
        }
      ],
      "name": "PatientAdded",
      "type": "event"
    },
    {
      "anonymous": false,
      "inputs": [
        {
          "indexed": true,
          "internalType": "uint256",
          "name": "id",
          "type": "uint256"
        },
        {
          "indexed": false,
          "internalType": "string",
          "name": "name",
          "type": "string"
        },
        {
          "indexed": false,
          "internalType": "string",
          "name": "district",
          "type": "string"
        },
        {
          "indexed": false,
          "internalType": "bool",
          "name": "is_dead",
          "type": "bool"
        }
      ],
      "name": "PatientAddedWithDeath",
      "type": "event"
    },
    {
      "anonymous": false,
      "inputs": [
        {
          "indexed": true,
          "internalType": "uint256",
          "name": "_candidateId",
          "type": "uint256"
        }
      ],
      "name": "votedEvent",
      "type": "event"
    },
    {
      "inputs": [
        {
          "internalType": "address",
          "name": "",
          "type": "address"
        }
      ],
      "name": "admins",
      "outputs": [
        {
          "internalType": "bool",
          "name": "",
          "type": "bool"
        }
      ],
      "stateMutability": "view",
      "type": "function",
      "constant": true
    },
    {
      "inputs": [
        {
          "internalType": "string",
          "name": "",
          "type": "string"
        }
      ],
      "name": "districtDeathCounts",
      "outputs": [
        {
          "internalType": "uint256",
          "name": "",
          "type": "uint256"
        }
      ],
      "stateMutability": "view",
      "type": "function",
      "constant": true
    },
    {
      "inputs": [
        {
          "internalType": "string",
          "name": "",
          "type": "string"
        }
      ],
      "name": "districtStats",
      "outputs": [
        {
          "internalType": "uint256",
          "name": "totalPatients",
          "type": "uint256"
        },
        {
          "internalType": "uint256",
          "name": "totalDeaths",
          "type": "uint256"
        },
        {
          "internalType": "uint256",
          "name": "totalAge",
          "type": "uint256"
        },
        {
          "internalType": "uint256",
          "name": "childCount",
          "type": "uint256"
        },
        {
          "internalType": "uint256",
          "name": "teenCount",
          "type": "uint256"
        },
        {
          "internalType": "uint256",
          "name": "youthCount",
          "type": "uint256"
        },
        {
          "internalType": "uint256",
          "name": "elderCount",
          "type": "uint256"
        },
        {
          "internalType": "uint256",
          "name": "childPercent",
          "type": "uint256"
        },
        {
          "internalType": "uint256",
          "name": "teenPercent",
          "type": "uint256"
        },
        {
          "internalType": "uint256",
          "name": "youthPercent",
          "type": "uint256"
        },
        {
          "internalType": "uint256",
          "name": "elderPercent",
          "type": "uint256"
        }
      ],
      "stateMutability": "view",
      "type": "function",
      "constant": true
    },
    {
      "inputs": [
        {
          "internalType": "uint256",
          "name": "",
          "type": "uint256"
        }
      ],
      "name": "districts",
      "outputs": [
        {
          "internalType": "string",
          "name": "",
          "type": "string"
        }
      ],
      "stateMutability": "view",
      "type": "function",
      "constant": true
    },
    {
      "inputs": [
        {
          "internalType": "uint256",
          "name": "",
          "type": "uint256"
        }
      ],
      "name": "patients",
      "outputs": [
        {
          "internalType": "uint256",
          "name": "id",
          "type": "uint256"
        },
        {
          "internalType": "string",
          "name": "name",
          "type": "string"
        },
        {
          "internalType": "uint256",
          "name": "age",
          "type": "uint256"
        },
        {
          "internalType": "string",
          "name": "gender",
          "type": "string"
        },
        {
          "internalType": "string",
          "name": "vaccine_status",
          "type": "string"
        },
        {
          "internalType": "string",
          "name": "district",
          "type": "string"
        },
        {
          "internalType": "string",
          "name": "symptoms_details",
          "type": "string"
        },
        {
          "internalType": "bool",
          "name": "is_dead",
          "type": "bool"
        },
        {
          "internalType": "bool",
          "name": "isDoubleDosed",
          "type": "bool"
        }
      ],
      "stateMutability": "view",
      "type": "function",
      "constant": true
    },
    {
      "inputs": [],
      "name": "patientsCount",
      "outputs": [
        {
          "internalType": "uint256",
          "name": "",
          "type": "uint256"
        }
      ],
      "stateMutability": "view",
      "type": "function",
      "constant": true
    },
    {
      "inputs": [
        {
          "internalType": "string",
          "name": "_name",
          "type": "string"
        },
        {
          "internalType": "uint256",
          "name": "_age",
          "type": "uint256"
        },
        {
          "internalType": "string",
          "name": "_gender",
          "type": "string"
        },
        {
          "internalType": "string",
          "name": "_vaccine_status",
          "type": "string"
        },
        {
          "internalType": "string",
          "name": "_district",
          "type": "string"
        },
        {
          "internalType": "string",
          "name": "_symptoms_details",
          "type": "string"
        },
        {
          "internalType": "bool",
          "name": "_is_dead",
          "type": "bool"
        }
      ],
      "name": "addPatient",
      "outputs": [],
      "stateMutability": "nonpayable",
      "type": "function"
    },
    {
      "inputs": [
        {
          "internalType": "uint256",
          "name": "_candidateId",
          "type": "uint256"
        }
      ],
      "name": "makeAdmin",
      "outputs": [],
      "stateMutability": "nonpayable",
      "type": "function"
    },
    {
      "inputs": [
        {
          "internalType": "uint256",
          "name": "_id",
          "type": "uint256"
        },
        {
          "internalType": "string",
          "name": "_vaccine_status",
          "type": "string"
        }
      ],
      "name": "updateVaccine",
      "outputs": [],
      "stateMutability": "nonpayable",
      "type": "function"
    },
    {
      "inputs": [],
      "name": "getDistrictDeathCounts",
      "outputs": [
        {
          "internalType": "string[]",
          "name": "",
          "type": "string[]"
        },
        {
          "internalType": "uint256[]",
          "name": "",
          "type": "uint256[]"
        }
      ],
      "stateMutability": "view",
      "type": "function",
      "constant": true
    },
    {
      "inputs": [
        {
          "internalType": "uint256",
          "name": "_id",
          "type": "uint256"
        },
        {
          "internalType": "bool",
          "name": "_is_dead",
          "type": "bool"
        }
      ],
      "name": "updateDeath",
      "outputs": [],
      "stateMutability": "nonpayable",
      "type": "function"
    },
    {
      "inputs": [],
      "name": "getCovidTrend",
      "outputs": [
        {
          "internalType": "uint256",
          "name": "",
          "type": "uint256"
        },
        {
          "internalType": "string",
          "name": "",
          "type": "string"
        },
        {
          "internalType": "uint256",
          "name": "",
          "type": "uint256"
        },
        {
          "internalType": "uint256",
          "name": "",
          "type": "uint256"
        },
        {
          "internalType": "uint256",
          "name": "",
          "type": "uint256"
        },
        {
          "internalType": "uint256",
          "name": "",
          "type": "uint256"
        },
        {
          "internalType": "uint256",
          "name": "",
          "type": "uint256"
        }
      ],
      "stateMutability": "view",
      "type": "function",
      "constant": true
    }
  ],
  "bytecode": "0x6080604052600060025534801561001557600080fd5b50612d02806100256000396000f3fe608060405234801561001057600080fd5b50600436106100b45760003560e01c8063b4536e5d11610071578063b4536e5d146101c3578063b6b1289d146101df578063bfa17833146101fd578063c1aa4de714610219578063d41fe5fa14610238578063e77995e01461025c576100b4565b806328e9a210146100b957806340e9009c146100e9578063429b62e51461010557806393119a8314610135578063a7da4f7a1461016d578063af21961814610189575b600080fd5b6100d360048036038101906100ce9190611c2d565b61028c565b6040516100e09190611c8f565b60405180910390f35b61010360048036038101906100fe9190611cd6565b6102ba565b005b61011f600480360381019061011a9190611d61565b610397565b60405161012c9190611da9565b60405180910390f35b61014f600480360381019061014a9190611cd6565b6103b7565b60405161016499989796959493929190611e43565b60405180910390f35b61018760048036038101906101829190611f1f565b6106c7565b005b6101a3600480360381019061019e9190611c2d565b6108f7565b6040516101ba9b9a9998979695949392919061204d565b60405180910390f35b6101dd60048036038101906101d891906120f8565b610967565b005b6101e7610c01565b6040516101f49190611c8f565b60405180910390f35b61021760048036038101906102129190612138565b610c07565b005b610221610d75565b60405161022f92919061235e565b60405180910390f35b610240611069565b6040516102539796959493929190612395565b60405180910390f35b61027660048036038101906102719190611cd6565b61123f565b604051610283919061240b565b60405180910390f35b6004818051602081018201805184825260208301602085012081835280955050505050506000915090505481565b6000803373ffffffffffffffffffffffffffffffffffffffff1673ffffffffffffffffffffffffffffffffffffffff16815260200190815260200160002060009054906101000a900460ff161561031057600080fd5b807ffff3c900d938d21d0990d786e819f29b8d05c1ef587b462b939609625b684b1660405160405180910390a260016000803373ffffffffffffffffffffffffffffffffffffffff1673ffffffffffffffffffffffffffffffffffffffff16815260200190815260200160002060006101000a81548160ff02191690831515021790555050565b60006020528060005260406000206000915054906101000a900460ff1681565b60016020528060005260406000206000915090508060000154908060010180546103e09061245c565b80601f016020809104026020016040519081016040528092919081815260200182805461040c9061245c565b80156104595780601f1061042e57610100808354040283529160200191610459565b820191906000526020600020905b81548152906001019060200180831161043c57829003601f168201915b5050505050908060020154908060030180546104749061245c565b80601f01602080910402602001604051908101604052809291908181526020018280546104a09061245c565b80156104ed5780601f106104c2576101008083540402835291602001916104ed565b820191906000526020600020905b8154815290600101906020018083116104d057829003601f168201915b5050505050908060040180546105029061245c565b80601f016020809104026020016040519081016040528092919081815260200182805461052e9061245c565b801561057b5780601f106105505761010080835404028352916020019161057b565b820191906000526020600020905b81548152906001019060200180831161055e57829003601f168201915b5050505050908060050180546105909061245c565b80601f01602080910402602001604051908101604052809291908181526020018280546105bc9061245c565b80156106095780601f106105de57610100808354040283529160200191610609565b820191906000526020600020905b8154815290600101906020018083116105ec57829003601f168201915b50505050509080600601805461061e9061245c565b80601f016020809104026020016040519081016040528092919081815260200182805461064a9061245c565b80156106975780601f1061066c57610100808354040283529160200191610697565b820191906000526020600020905b81548152906001019060200180831161067a57829003601f168201915b5050505050908060070160009054906101000a900460ff16908060070160019054906101000a900460ff16905089565b600260008154809291906106da906124bc565b91905055506000610720856040518060400160405280600881526020017f74776f5f646f73650000000000000000000000000000000000000000000000008152506112eb565b90506040518061012001604052806002548152602001898152602001888152602001878152602001868152602001858152602001848152602001831515815260200182151581525060016000600254815260200190815260200160002060008201518160000155602082015181600101908161079c91906126b0565b506040820151816002015560608201518160030190816107bc91906126b0565b5060808201518160040190816107d291906126b0565b5060a08201518160050190816107e891906126b0565b5060c08201518160060190816107fe91906126b0565b5060e08201518160070160006101000a81548160ff0219169083151502179055506101008201518160070160016101000a81548160ff0219169083151502179055509050508115610854576108538483611344565b5b6108646002548886856001611383565b61086d846116b2565b6108a7576005849080600181540180825580915050600190039060005260206000200160009091909190915090816108a591906126b0565b505b6002547f14114d2ffb1c6b656f341bcbed3f8a6dc98be98c71e1c7bf30fe9324af0b97a5898989898989896040516108e59796959493929190612782565b60405180910390a25050505050505050565b60038180516020810182018051848252602083016020850120818352809550505050505060009150905080600001549080600101549080600201549080600301549080600401549080600501549080600601549080600701549080600801549080600901549080600a015490508b565b600115156000803373ffffffffffffffffffffffffffffffffffffffff1673ffffffffffffffffffffffffffffffffffffffff16815260200190815260200160002060009054906101000a900460ff161515146109f9576040517f08c379a00000000000000000000000000000000000000000000000000000000081526004016109f090612860565b60405180910390fd5b60006001600084815260200190815260200160002060070160009054906101000a900460ff169050816001600085815260200190815260200160002060070160006101000a81548160ff0219169083151502179055506000600160008581526020019081526020016000206005018054610a729061245c565b80601f0160208091040260200160405190810160405280929190818152602001828054610a9e9061245c565b8015610aeb5780601f10610ac057610100808354040283529160200191610aeb565b820191906000526020600020905b815481529060010190602001808311610ace57829003601f168201915b5050505050905082151582151514610bfb578215610b3857600481604051610b1391906128bc565b90815260200160405180910390206000815480929190610b32906124bc565b91905055505b610bfa846001600087815260200190815260200160002060020154600160008881526020019081526020016000206005018054610b749061245c565b80601f0160208091040260200160405190810160405280929190818152602001828054610ba09061245c565b8015610bed5780601f10610bc257610100808354040283529160200191610bed565b820191906000526020600020905b815481529060010190602001808311610bd057829003601f168201915b5050505050868715611383565b5b50505050565b60025481565b600115156000803373ffffffffffffffffffffffffffffffffffffffff1673ffffffffffffffffffffffffffffffffffffffff16815260200190815260200160002060009054906101000a900460ff16151514610c99576040517f08c379a0000000000000000000000000000000000000000000000000000000008152600401610c9090612860565b60405180910390fd5b80600160008481526020019081526020016000206004019081610cbc91906126b0565b50604051602001610ccc9061291f565b6040516020818303038152906040528051906020012081604051602001610cf391906128bc565b6040516020818303038152906040528051906020012003610d4157600180600084815260200190815260200160002060070160016101000a81548160ff021916908315150217905550610d71565b60006001600084815260200190815260200160002060070160016101000a81548160ff0219169083151502179055505b5050565b6060806000600580549050905060008167ffffffffffffffff811115610d9e57610d9d611b02565b5b604051908082528060200260200182016040528015610dcc5781602001602082028036833780820191505090505b50905060008267ffffffffffffffff811115610deb57610dea611b02565b5b604051908082528060200260200182016040528015610e1e57816020015b6060815260200190600190039081610e095790505b50905060008060005b85811015610f7c57600060058281548110610e4557610e44612934565b5b906000526020600020018054610e5a9061245c565b80601f0160208091040260200160405190810160405280929190818152602001828054610e869061245c565b8015610ed35780601f10610ea857610100808354040283529160200191610ed3565b820191906000526020600020905b815481529060010190602001808311610eb657829003601f168201915b505050505090506000600482604051610eec91906128bc565b908152602001604051809103902054905080878481518110610f1157610f10612934565b5b60200260200101818152505081868481518110610f3157610f30612934565b5b602002602001018190525084811115610f505780945060019350610f67565b848103610f66578380610f62906124bc565b9450505b5b50508080610f74906124bc565b915050610e27565b5060008167ffffffffffffffff811115610f9957610f98611b02565b5b604051908082528060200260200182016040528015610fcc57816020015b6060815260200190600190039081610fb75790505b5090506000805b878110156110575784878281518110610fef57610fee612934565b5b6020026020010151036110445785818151811061100f5761100e612934565b5b602002602001015183838151811061102a57611029612934565b5b60200260200101819052508180611040906124bc565b9250505b808061104f906124bc565b915050610fd3565b50818698509850505050505050509091565b6000606060008060008060008060008060008060008060009050606060005b6005805490508110156111ec5760006004600583815481106110ad576110ac612934565b5b906000526020600020016040516110c491906129e6565b90815260200160405180910390205490508381111561118e57809350600582815481106110f4576110f3612934565b5b9060005260206000200180546111099061245c565b80601f01602080910402602001604051908101604052809291908181526020018280546111359061245c565b80156111825780601f1061115757610100808354040283529160200191611182565b820191906000526020600020905b81548152906001019060200180831161116557829003601f168201915b505050505092506111d8565b8381036111d75782600583815481106111aa576111a9612934565b5b906000526020600020016040516020016111c5929190612a49565b60405160208183030381529060405292505b5b5080806111e4906124bc565b915050611088565b506111f561175f565b97506111ff6117c5565b965061120961188a565b80965081975082985083995050505050878188888888889e509e509e509e509e509e509e50505050505050505090919293949596565b6005818154811061124f57600080fd5b90600052602060002001600091509050805461126a9061245c565b80601f01602080910402602001604051908101604052809291908181526020018280546112969061245c565b80156112e35780601f106112b8576101008083540402835291602001916112e3565b820191906000526020600020905b8154815290600101906020018083116112c657829003601f168201915b505050505081565b6000816040516020016112fe91906128bc565b604051602081830303815290604052805190602001208360405160200161132591906128bc565b6040516020818303038152906040528051906020012014905092915050565b801561137f5760048260405161135a91906128bc565b90815260200160405180910390206000815480929190611379906124bc565b91905055505b5050565b600060038460405161139591906128bc565b908152602001604051809103902060000154036114965760405180610160016040528060008152602001600081526020016000815260200160008152602001600081526020016000815260200160008152602001600081526020016000815260200160008152602001600081525060038460405161141391906128bc565b9081526020016040518091039020600082015181600001556020820151816001015560408201518160020155606082015181600301556080820151816004015560a0820151816005015560c0820151816006015560e082015181600701556101008201518160080155610120820151816009015561014082015181600a01559050505b60006003846040516114a891906128bc565b9081526020016040518091039020905081156114dd578060000160008154809291906114d3906124bc565b919050555061153f565b6000816000015411611524576040517f08c379a000000000000000000000000000000000000000000000000000000000815260040161151b90612ac4565b60405180910390fd5b80600001600081548092919061153990612ae4565b91905055505b848160020160008282546115539190612b0d565b92505081905550821561157b57806001016000815480929190611575906124bc565b91905055505b600d8510156115a357806003016000815480929190611599906124bc565b9190505550611610565b60148510156115cb578060040160008154809291906115c1906124bc565b919050555061160f565b60328510156115f3578060050160008154809291906115e9906124bc565b919050555061160e565b806006016000815480929190611608906124bc565b91905055505b5b5b600081600001549050806064836003015461162b9190612b41565b6116359190612bca565b8260070181905550806064836004015461164f9190612b41565b6116599190612bca565b826008018190555080606483600501546116739190612b41565b61167d9190612bca565b826009018190555080606483600601546116979190612b41565b6116a19190612bca565b82600a018190555050505050505050565b600080600090505b60058054905081101561175457826040516020016116d891906128bc565b604051602081830303815290604052805190602001206005828154811061170257611701612934565b5b9060005260206000200160405160200161171c91906129e6565b604051602081830303815290604052805190602001200361174157600191505061175a565b808061174c906124bc565b9150506116ba565b50600090505b919050565b6000806000600190505b60025481116117bd576001600082815260200190815260200160002060070160009054906101000a900460ff16156117aa5781806117a6906124bc565b9250505b80806117b5906124bc565b915050611769565b508091505090565b60008060025467ffffffffffffffff8111156117e4576117e3611b02565b5b6040519080825280602002602001820160405280156118125781602001602082028036833780820191505090505b5090506000600190505b600254811161187a5760016000828152602001908152602001600020600201548260018361184a9190612bfb565b8151811061185b5761185a612934565b5b6020026020010181815250508080611872906124bc565b91505061181c565b50611884816119cd565b91505090565b6000806000806000806000806000600190505b600254811161193a57600060016000838152602001908152602001600020600201549050600d8110156118dd5785806118d5906124bc565b965050611926565b60148110156118f95784806118f1906124bc565b955050611925565b603281101561191557838061190d906124bc565b945050611924565b8280611920906124bc565b9350505b5b5b508080611932906124bc565b91505061189d565b50600060025490506000816064876119529190612b41565b61195c9190612bca565b905060008260648761196e9190612b41565b6119789190612bca565b905060008360648761198a9190612b41565b6119949190612bca565b90506000846064876119a69190612b41565b6119b09190612bca565b9050838383839c509c509c509c5050505050505050505090919293565b6000808251905060008111611a17576040517f08c379a0000000000000000000000000000000000000000000000000000000008152600401611a0e90612c7b565b60405180910390fd5b6000600282611a269190612c9b565b03611aa357600283600283611a3b9190612bca565b81518110611a4c57611a4b612934565b5b6020026020010151846001600285611a649190612bca565b611a6e9190612bfb565b81518110611a7f57611a7e612934565b5b6020026020010151611a919190612b0d565b611a9b9190612bca565b915050611ace565b82600282611ab19190612bca565b81518110611ac257611ac1612934565b5b60200260200101519150505b919050565b6000604051905090565b600080fd5b600080fd5b600080fd5b600080fd5b6000601f19601f8301169050919050565b7f4e487b7100000000000000000000000000000000000000000000000000000000600052604160045260246000fd5b611b3a82611af1565b810181811067ffffffffffffffff82111715611b5957611b58611b02565b5b80604052505050565b6000611b6c611ad3565b9050611b788282611b31565b919050565b600067ffffffffffffffff821115611b9857611b97611b02565b5b611ba182611af1565b9050602081019050919050565b82818337600083830152505050565b6000611bd0611bcb84611b7d565b611b62565b905082815260208101848484011115611bec57611beb611aec565b5b611bf7848285611bae565b509392505050565b600082601f830112611c1457611c13611ae7565b5b8135611c24848260208601611bbd565b91505092915050565b600060208284031215611c4357611c42611add565b5b600082013567ffffffffffffffff811115611c6157611c60611ae2565b5b611c6d84828501611bff565b91505092915050565b6000819050919050565b611c8981611c76565b82525050565b6000602082019050611ca46000830184611c80565b92915050565b611cb381611c76565b8114611cbe57600080fd5b50565b600081359050611cd081611caa565b92915050565b600060208284031215611cec57611ceb611add565b5b6000611cfa84828501611cc1565b91505092915050565b600073ffffffffffffffffffffffffffffffffffffffff82169050919050565b6000611d2e82611d03565b9050919050565b611d3e81611d23565b8114611d4957600080fd5b50565b600081359050611d5b81611d35565b92915050565b600060208284031215611d7757611d76611add565b5b6000611d8584828501611d4c565b91505092915050565b60008115159050919050565b611da381611d8e565b82525050565b6000602082019050611dbe6000830184611d9a565b92915050565b600081519050919050565b600082825260208201905092915050565b60005b83811015611dfe578082015181840152602081019050611de3565b60008484015250505050565b6000611e1582611dc4565b611e1f8185611dcf565b9350611e2f818560208601611de0565b611e3881611af1565b840191505092915050565b600061012082019050611e59600083018c611c80565b8181036020830152611e6b818b611e0a565b9050611e7a604083018a611c80565b8181036060830152611e8c8189611e0a565b90508181036080830152611ea08188611e0a565b905081810360a0830152611eb48187611e0a565b905081810360c0830152611ec88186611e0a565b9050611ed760e0830185611d9a565b611ee5610100830184611d9a565b9a9950505050505050505050565b611efc81611d8e565b8114611f0757600080fd5b50565b600081359050611f1981611ef3565b92915050565b600080600080600080600060e0888a031215611f3e57611f3d611add565b5b600088013567ffffffffffffffff811115611f5c57611f5b611ae2565b5b611f688a828b01611bff565b9750506020611f798a828b01611cc1565b965050604088013567ffffffffffffffff811115611f9a57611f99611ae2565b5b611fa68a828b01611bff565b955050606088013567ffffffffffffffff811115611fc757611fc6611ae2565b5b611fd38a828b01611bff565b945050608088013567ffffffffffffffff811115611ff457611ff3611ae2565b5b6120008a828b01611bff565b93505060a088013567ffffffffffffffff81111561202157612020611ae2565b5b61202d8a828b01611bff565b92505060c061203e8a828b01611f0a565b91505092959891949750929550565b600061016082019050612063600083018e611c80565b612070602083018d611c80565b61207d604083018c611c80565b61208a606083018b611c80565b612097608083018a611c80565b6120a460a0830189611c80565b6120b160c0830188611c80565b6120be60e0830187611c80565b6120cc610100830186611c80565b6120da610120830185611c80565b6120e8610140830184611c80565b9c9b505050505050505050505050565b6000806040838503121561210f5761210e611add565b5b600061211d85828601611cc1565b925050602061212e85828601611f0a565b9150509250929050565b6000806040838503121561214f5761214e611add565b5b600061215d85828601611cc1565b925050602083013567ffffffffffffffff81111561217e5761217d611ae2565b5b61218a85828601611bff565b9150509250929050565b600081519050919050565b600082825260208201905092915050565b6000819050602082019050919050565b600082825260208201905092915050565b60006121dc82611dc4565b6121e681856121c0565b93506121f6818560208601611de0565b6121ff81611af1565b840191505092915050565b600061221683836121d1565b905092915050565b6000602082019050919050565b600061223682612194565b612240818561219f565b935083602082028501612252856121b0565b8060005b8581101561228e578484038952815161226f858261220a565b945061227a8361221e565b925060208a01995050600181019050612256565b50829750879550505050505092915050565b600081519050919050565b600082825260208201905092915050565b6000819050602082019050919050565b6122d581611c76565b82525050565b60006122e783836122cc565b60208301905092915050565b6000602082019050919050565b600061230b826122a0565b61231581856122ab565b9350612320836122bc565b8060005b8381101561235157815161233888826122db565b9750612343836122f3565b925050600181019050612324565b5085935050505092915050565b60006040820190508181036000830152612378818561222b565b9050818103602083015261238c8184612300565b90509392505050565b600060e0820190506123aa600083018a611c80565b81810360208301526123bc8189611e0a565b90506123cb6040830188611c80565b6123d86060830187611c80565b6123e56080830186611c80565b6123f260a0830185611c80565b6123ff60c0830184611c80565b98975050505050505050565b600060208201905081810360008301526124258184611e0a565b905092915050565b7f4e487b7100000000000000000000000000000000000000000000000000000000600052602260045260246000fd5b6000600282049050600182168061247457607f821691505b6020821081036124875761248661242d565b5b50919050565b7f4e487b7100000000000000000000000000000000000000000000000000000000600052601160045260246000fd5b60006124c782611c76565b91507fffffffffffffffffffffffffffffffffffffffffffffffffffffffffffffffff82036124f9576124f861248d565b5b600182019050919050565b60008190508160005260206000209050919050565b60006020601f8301049050919050565b600082821b905092915050565b6000600883026125667fffffffffffffffffffffffffffffffffffffffffffffffffffffffffffffffff82612529565b6125708683612529565b95508019841693508086168417925050509392505050565b6000819050919050565b60006125ad6125a86125a384611c76565b612588565b611c76565b9050919050565b6000819050919050565b6125c783612592565b6125db6125d3826125b4565b848454612536565b825550505050565b600090565b6125f06125e3565b6125fb8184846125be565b505050565b5b8181101561261f576126146000826125e8565b600181019050612601565b5050565b601f8211156126645761263581612504565b61263e84612519565b8101602085101561264d578190505b61266161265985612519565b830182612600565b50505b505050565b600082821c905092915050565b600061268760001984600802612669565b1980831691505092915050565b60006126a08383612676565b9150826002028217905092915050565b6126b982611dc4565b67ffffffffffffffff8111156126d2576126d1611b02565b5b6126dc825461245c565b6126e7828285612623565b600060209050601f83116001811461271a5760008415612708578287015190505b6127128582612694565b86555061277a565b601f19841661272886612504565b60005b828110156127505784890151825560018201915060208501945060208101905061272b565b8683101561276d5784890151612769601f891682612676565b8355505b6001600288020188555050505b505050505050565b600060e082019050818103600083015261279c818a611e0a565b90506127ab6020830189611c80565b81810360408301526127bd8188611e0a565b905081810360608301526127d18187611e0a565b905081810360808301526127e58186611e0a565b905081810360a08301526127f98185611e0a565b905061280860c0830184611d9a565b98975050505050505050565b7f53656e646572206973206e6f7420616e2041646d696e00000000000000000000600082015250565b600061284a601683611dcf565b915061285582612814565b602082019050919050565b600060208201905081810360008301526128798161283d565b9050919050565b600081905092915050565b600061289682611dc4565b6128a08185612880565b93506128b0818560208601611de0565b80840191505092915050565b60006128c8828461288b565b915081905092915050565b7f74776f5f646f7365000000000000000000000000000000000000000000000000600082015250565b6000612909600883612880565b9150612914826128d3565b600882019050919050565b600061292a826128fc565b9150819050919050565b7f4e487b7100000000000000000000000000000000000000000000000000000000600052603260045260246000fd5b600081546129708161245c565b61297a8186612880565b9450600182166000811461299557600181146129aa576129dd565b60ff19831686528115158202860193506129dd565b6129b385612504565b60005b838110156129d5578154818901526001820191506020810190506129b6565b838801955050505b50505092915050565b60006129f28284612963565b915081905092915050565b7f2000000000000000000000000000000000000000000000000000000000000000600082015250565b6000612a33600183612880565b9150612a3e826129fd565b600182019050919050565b6000612a55828561288b565b9150612a6082612a26565b9150612a6c8284612963565b91508190509392505050565b7f4e6f2070617469656e747320696e207468697320646973747269637400000000600082015250565b6000612aae601c83611dcf565b9150612ab982612a78565b602082019050919050565b60006020820190508181036000830152612add81612aa1565b9050919050565b6000612aef82611c76565b915060008203612b0257612b0161248d565b5b600182039050919050565b6000612b1882611c76565b9150612b2383611c76565b9250828201905080821115612b3b57612b3a61248d565b5b92915050565b6000612b4c82611c76565b9150612b5783611c76565b9250817fffffffffffffffffffffffffffffffffffffffffffffffffffffffffffffffff0483118215151615612b9057612b8f61248d565b5b828202905092915050565b7f4e487b7100000000000000000000000000000000000000000000000000000000600052601260045260246000fd5b6000612bd582611c76565b9150612be083611c76565b925082612bf057612bef612b9b565b5b828204905092915050565b6000612c0682611c76565b9150612c1183611c76565b9250828203905081811115612c2957612c2861248d565b5b92915050565b7f456d707479206172726179000000000000000000000000000000000000000000600082015250565b6000612c65600b83611dcf565b9150612c7082612c2f565b602082019050919050565b60006020820190508181036000830152612c9481612c58565b9050919050565b6000612ca682611c76565b9150612cb183611c76565b925082612cc157612cc0612b9b565b5b82820690509291505056fea264697066735822122000b3be08e746d01868b226dfd0c2323b4ac641bad05eb534682c2a9e9e50d20464736f6c63430008100033",
  "immutableReferences": {},
  "source": "// SPDX-License-Identifier: GPL-3.0\npragma solidity >=0.7.0 <0.9.0;\n\ncontract PatientManagement {\n    // Emit an event when a patient is added with the is_dead flag set to true\n    event PatientAddedWithDeath(uint indexed id, string name, string district, bool is_dead);\n    event votedEvent(uint indexed _candidateId);\n    event PatientAdded(\n        uint indexed id,\n        string name,\n        uint age,\n        string gender,\n        string vaccine_status,\n        string district,\n        string symptoms_details,\n        bool is_dead\n    );\n\n    struct Patient{\n        uint id;\n        string name;\n        uint age;\n        string gender;\n        string vaccine_status;\n        string district;\n        string symptoms_details;\n        bool is_dead;\n        bool isDoubleDosed;\n    }\n\n    // Store accounts that have voted\n    mapping( address => bool ) public admins;\n\n    mapping( uint => Patient ) public patients;\n\n    // store candidates count\n    uint public patientsCount=0;\n    \n   \nstruct DistrictStats {\n    uint totalPatients;\n    uint totalDeaths;\n    uint totalAge;\n    uint childCount;\n    uint teenCount;\n    uint youthCount;\n    uint elderCount;\n    uint childPercent;\n    uint teenPercent;\n    uint youthPercent;\n    uint elderPercent;\n}\n\n    // Mapping to store district-wise statistics\n    mapping(string => DistrictStats) public districtStats;\n    // update Covid trend statistics\n    function updateCovidTrend(uint _id, uint _age, string memory _district, bool _is_dead, bool isAddition) internal {\n        if (districtStats[_district].totalPatients == 0) {\n            districtStats[_district] = DistrictStats(0, 0, 0, 0, 0, 0, 0, 0, 0, 0, 0);\n        }\n\n    \n        DistrictStats storage stats = districtStats[_district];\n        \n        \n        if (isAddition) {\n            stats.totalPatients++;\n        } else {\n            require(stats.totalPatients > 0, \"No patients in this district\");\n            stats.totalPatients--;\n        }\n        \n       \n        stats.totalAge += _age;\n\n        // Update death count\n        if (_is_dead) {\n            stats.totalDeaths++;\n        }\n\n       \n        if (_age < 13) {\n            stats.childCount++;\n        } else if (_age < 20) {\n            stats.teenCount++;\n        } else if (_age < 50) {\n            stats.youthCount++;\n        } else {\n            stats.elderCount++;\n        }\n\n       \n        uint totalPatients = stats.totalPatients;\n        stats.childPercent = (stats.childCount * 100) / totalPatients;\n        stats.teenPercent = (stats.teenCount * 100) / totalPatients;\n        stats.youthPercent = (stats.youthCount * 100) / totalPatients;\n        stats.elderPercent = (stats.elderCount * 100) / totalPatients;\n    }\n\n\n   \n    // Mapping to store death count for each district\n    mapping(string => uint) public districtDeathCounts;\n\n    // update death count for a district\n    function updateDistrictDeathCount(string memory _district, bool _is_dead) internal {\n        if (_is_dead) {\n            districtDeathCounts[_district]++;\n        }\n    }\n\n    // Array to store all district names\n    string[] public districts;\n\n    function districtExists(string memory _district) internal view returns (bool) {\n        for (uint i = 0; i < districts.length; i++) {\n            if (keccak256(abi.encodePacked(districts[i])) == keccak256(abi.encodePacked(_district))) {\n                return true;\n            }\n        }\n        return false;\n    }\n\n    // adding candidates\n    function addPatient(string memory _name, uint _age ,string memory _gender,string memory _vaccine_status,string memory _district,string memory _symptoms_details,bool _is_dead ) public {\n        patientsCount++;\n        bool isDoubleDosed = compareStrings(_vaccine_status, \"two_dose\"); // Check if vaccine status is \"Two Dose\"\n        patients[patientsCount] = Patient(patientsCount, _name,_age, _gender, _vaccine_status, _district, _symptoms_details, _is_dead, isDoubleDosed );\n        \n        // Update district death count if the patient is dead\n        if (_is_dead) {\n            updateDistrictDeathCount(_district, _is_dead);\n        }\n        \n        // Update Covid trend statistics\n        updateCovidTrend(patientsCount, _age, _district, _is_dead, true);\n\n    \n        if (!districtExists(_district)) {\n            districts.push(_district);\n        }\n        \n        emit PatientAdded(patientsCount, _name, _age, _gender, _vaccine_status, _district, _symptoms_details, _is_dead);\n    }\n\n   // Function to compare two strings\n    function compareStrings(string memory a, string memory b) internal pure returns (bool) {\n        return (keccak256(abi.encodePacked((a))) == keccak256(abi.encodePacked((b))));\n    }\n\n    // cast vote\n    function makeAdmin(uint _candidateId) public {\n        // require that the current voter haven't voted before\n        require(!admins[msg.sender]);\n        /// emit the event\n        emit votedEvent(_candidateId);\n\n        // record voters vote\n        admins[msg.sender] = true;\n    }\n\n    modifier senderIsAdmin {\n        require(admins[msg.sender] == true, \"Sender is not an Admin\");\n        _;\n    }\n\n    function updateVaccine(uint _id, string memory _vaccine_status) public senderIsAdmin {\n    patients[_id].vaccine_status = _vaccine_status;\n\n    if (keccak256(abi.encodePacked(_vaccine_status)) == keccak256(abi.encodePacked(\"two_dose\"))) {\n        patients[_id].isDoubleDosed = true;\n    } else {\n        patients[_id].isDoubleDosed = false;\n    }\n}\n\n\n    function getDistrictDeathCounts() public view returns (string[] memory, uint[] memory) {\n        uint length = districts.length;\n        uint[] memory deathCounts = new uint[](length);\n        string[] memory districtNames = new string[](length);\n        uint highestDeathCount = 0;\n        uint highestDeathCountDistrictsCount = 0;\n\n        for (uint i = 0; i < length; i++) {\n            string memory districtName = districts[i];\n            uint deathCount = districtDeathCounts[districtName];\n            deathCounts[i] = deathCount;\n            districtNames[i] = districtName;\n\n            \n            if (deathCount > highestDeathCount) {\n                highestDeathCount = deathCount;\n                highestDeathCountDistrictsCount = 1;\n            } else if (deathCount == highestDeathCount) {\n                highestDeathCountDistrictsCount++;\n            }\n        }\n\n       \n        string[] memory districtsWithHighestDeathCount = new string[](highestDeathCountDistrictsCount);\n        uint index = 0;\n        for (uint j = 0; j < length; j++) {\n            if (deathCounts[j] == highestDeathCount) {\n                districtsWithHighestDeathCount[index] = districtNames[j];\n                index++;\n            }\n        }\n\n        return (districtsWithHighestDeathCount, deathCounts);\n    }\n\n    function updateDeath(uint _id, bool _is_dead) public senderIsAdmin {\n        bool currentDeathStatus = patients[_id].is_dead;\n        \n        // Update patient death status\n        patients[_id].is_dead = _is_dead;\n        \n        // Update Covid trend statistics only if death status changes\n        string memory district = patients[_id].district;\n        if (currentDeathStatus != _is_dead) {\n            if (_is_dead) {\n                districtDeathCounts[district]++;\n            }\n            \n            updateCovidTrend(_id, patients[_id].age, patients[_id].district, _is_dead, !_is_dead);\n        }\n    }\n\n    function getCovidTrend() public view returns (uint, string memory, uint, uint, uint, uint, uint) {\n    uint totalDeaths;\n    uint medianAge;\n    uint childPercent;\n    uint teenPercent;\n    uint youthPercent;\n    uint elderPercent;\n\n    // district with highest death count\n    uint highestDeathCount = 0;\n    string memory concatenatedDistricts;\n    for (uint j = 0; j < districts.length; j++) {\n        uint deathCount = districtDeathCounts[districts[j]];\n        if (deathCount > highestDeathCount) {\n            highestDeathCount = deathCount;\n            concatenatedDistricts = districts[j];\n        } else if (deathCount == highestDeathCount) {\n            concatenatedDistricts = string(abi.encodePacked(concatenatedDistricts, \" \", districts[j]));\n        }\n    }\n\n    totalDeaths = calculateTotalDeaths();\n    medianAge = calculateMedianAge();\n    (childPercent, teenPercent, youthPercent, elderPercent) = calculateAgeGroupPercentages();\n\n    return (totalDeaths, concatenatedDistricts, medianAge, childPercent, teenPercent, youthPercent, elderPercent);\n}\n\n\nfunction calculateTotalDeaths() internal view returns (uint) {\n    uint deaths;\n    for (uint i = 1; i <= patientsCount; i++) {\n        if (patients[i].is_dead) {\n            deaths++;\n        }\n    }\n    return deaths;\n}\n\nfunction calculateAgeGroupPercentages() internal view returns (uint, uint, uint, uint) {\n    uint childCount;\n    uint teenCount;\n    uint youthCount;\n    uint elderCount;\n\n    //patients in each age group\n    for (uint i = 1; i <= patientsCount; i++) {\n        uint age = patients[i].age;\n        if (age < 13) {\n            childCount++;\n        } else if (age < 20) {\n            teenCount++;\n        } else if (age < 50) {\n            youthCount++;\n        } else {\n            elderCount++;\n        }\n    }\n\n    uint totalPatients = patientsCount;\n    uint childPercent = (childCount * 100) / totalPatients;\n    uint teenPercent = (teenCount * 100) / totalPatients;\n    uint youthPercent = (youthCount * 100) / totalPatients;\n    uint elderPercent = (elderCount * 100) / totalPatients;\n\n    return (childPercent, teenPercent, youthPercent, elderPercent);\n}\n\nfunction calculateMedianAge() internal view returns (uint) {\n    uint[] memory ages = new uint[](patientsCount);\n    for (uint k = 1; k <= patientsCount; k++) {\n        ages[k - 1] = patients[k].age;\n    }\n    return calculateMedian(ages);\n}\n//calculate median\nfunction calculateMedian(uint[] memory values) internal pure returns (uint) {\n    uint n = values.length;\n    require(n > 0, \"Empty array\");\n    if (n % 2 == 0) {\n        return (values[n / 2 - 1] + values[n / 2]) / 2;\n    } else {\n        return values[n / 2];\n    }\n}\n\n\n}\n",
  "sourcePath": "/home/proma/446 project/446/contracts/PatientManagement.sol",
  "compiler": {
    "name": "solc",
    "version": "0.8.16+commit.07a7930e.Emscripten.clang"
  },
  "schemaVersion": "3.4.16",
  "updatedAt": "2024-04-15T21:13:56.435Z",
  "networkType": "ethereum",
  "devdoc": {
    "kind": "dev",
    "methods": {},
    "version": 1
  },
  "userdoc": {
    "kind": "user",
    "methods": {},
    "version": 1
  }
}